{
  "contractName": "Supplychain",
  "abi": [
    {
      "anonymous": false,
      "inputs": [
        {
          "indexed": false,
          "internalType": "string",
          "name": "drugName",
          "type": "string"
        },
        {
          "indexed": false,
          "internalType": "string",
          "name": "drugQuantity",
          "type": "string"
        },
        {
          "indexed": false,
          "internalType": "string",
          "name": "dateOfManufacture",
          "type": "string"
        },
        {
          "indexed": false,
          "internalType": "string",
          "name": "dateOfExpire",
          "type": "string"
        },
        {
          "indexed": false,
          "internalType": "string",
          "name": "fileaddress",
          "type": "string"
        },
        {
          "indexed": false,
          "internalType": "bool",
          "name": "verified",
          "type": "bool"
        },
        {
          "indexed": false,
          "internalType": "enum Supplychain.drugActivity",
          "name": "activity",
          "type": "uint8"
        }
      ],
      "name": "addDrugs",
      "type": "event"
    },
    {
      "anonymous": false,
      "inputs": [
        {
          "indexed": false,
          "internalType": "string",
          "name": "manfloc",
          "type": "string"
        },
        {
          "indexed": false,
          "internalType": "string",
          "name": "distloc",
          "type": "string"
        },
        {
          "indexed": false,
          "internalType": "string",
          "name": "logloc",
          "type": "string"
        },
        {
          "indexed": false,
          "internalType": "string",
          "name": "userloc",
          "type": "string"
        }
      ],
      "name": "manageLocation",
      "type": "event"
    },
    {
      "anonymous": false,
      "inputs": [
        {
          "indexed": false,
          "internalType": "address",
          "name": "origmanufacturer",
          "type": "address"
        },
        {
          "indexed": false,
          "internalType": "uint256",
          "name": "origmantimestamp",
          "type": "uint256"
        },
        {
          "indexed": false,
          "internalType": "address",
          "name": "origdistributor",
          "type": "address"
        },
        {
          "indexed": false,
          "internalType": "uint256",
          "name": "origdistimestamp",
          "type": "uint256"
        },
        {
          "indexed": false,
          "internalType": "address",
          "name": "origlogistic",
          "type": "address"
        },
        {
          "indexed": false,
          "internalType": "uint256",
          "name": "origlogtimestamp",
          "type": "uint256"
        },
        {
          "indexed": false,
          "internalType": "address",
          "name": "origenduser",
          "type": "address"
        },
        {
          "indexed": false,
          "internalType": "uint256",
          "name": "origusertimestamp",
          "type": "uint256"
        }
      ],
      "name": "manageSupplychain",
      "type": "event"
    },
    {
      "constant": false,
      "inputs": [
        {
          "internalType": "string",
          "name": "_drugName",
          "type": "string"
        },
        {
          "internalType": "string",
          "name": "_drugQuantity",
          "type": "string"
        },
        {
          "internalType": "string",
          "name": "_dateOfManufacture",
          "type": "string"
        },
        {
          "internalType": "string",
          "name": "_dateOfExpire",
          "type": "string"
        },
        {
          "internalType": "string",
          "name": "_fileaddress",
          "type": "string"
        },
        {
          "internalType": "bool",
          "name": "_verified",
          "type": "bool"
        },
        {
          "internalType": "string",
          "name": "batchno",
          "type": "string"
        }
      ],
      "name": "AddDrug",
      "outputs": [],
      "payable": false,
      "stateMutability": "nonpayable",
      "type": "function"
    },
    {
      "constant": true,
      "inputs": [
        {
          "internalType": "string",
          "name": "batchno",
          "type": "string"
        }
      ],
      "name": "retrieveDrug",
      "outputs": [
        {
          "internalType": "string",
          "name": "",
          "type": "string"
        },
        {
          "internalType": "string",
          "name": "",
          "type": "string"
        },
        {
          "internalType": "string",
          "name": "",
          "type": "string"
        },
        {
          "internalType": "string",
          "name": "",
          "type": "string"
        },
        {
          "internalType": "string",
          "name": "",
          "type": "string"
        }
      ],
      "payable": false,
      "stateMutability": "view",
      "type": "function"
    },
    {
      "constant": true,
      "inputs": [
        {
          "internalType": "string",
          "name": "batchno",
          "type": "string"
        }
      ],
      "name": "retrieveDrug1",
      "outputs": [
        {
          "internalType": "bool",
          "name": "",
          "type": "bool"
        },
        {
          "internalType": "enum Supplychain.drugActivity",
          "name": "",
          "type": "uint8"
        }
      ],
      "payable": false,
      "stateMutability": "view",
      "type": "function"
    },
    {
      "constant": false,
      "inputs": [
        {
          "internalType": "string",
          "name": "batchno",
          "type": "string"
        },
        {
          "internalType": "string",
          "name": "loc",
          "type": "string"
        }
      ],
      "name": "addManufactuer",
      "outputs": [],
      "payable": false,
      "stateMutability": "nonpayable",
      "type": "function"
    },
    {
      "constant": false,
      "inputs": [
        {
          "internalType": "string",
          "name": "batchno",
          "type": "string"
        },
        {
          "internalType": "string",
          "name": "loc",
          "type": "string"
        }
      ],
      "name": "addDistributor",
      "outputs": [],
      "payable": false,
      "stateMutability": "nonpayable",
      "type": "function"
    },
    {
      "constant": false,
      "inputs": [
        {
          "internalType": "string",
          "name": "batchno",
          "type": "string"
        },
        {
          "internalType": "string",
          "name": "loc",
          "type": "string"
        }
      ],
      "name": "addLogistic",
      "outputs": [],
      "payable": false,
      "stateMutability": "nonpayable",
      "type": "function"
    },
    {
      "constant": false,
      "inputs": [
        {
          "internalType": "string",
          "name": "batchno",
          "type": "string"
        },
        {
          "internalType": "string",
          "name": "loc",
          "type": "string"
        }
      ],
      "name": "addEndUser",
      "outputs": [],
      "payable": false,
      "stateMutability": "nonpayable",
      "type": "function"
    },
    {
      "constant": true,
      "inputs": [
        {
          "internalType": "string",
          "name": "batchno",
          "type": "string"
        }
      ],
      "name": "returnRolesAddresses",
      "outputs": [
        {
          "internalType": "address",
          "name": "",
          "type": "address"
        },
        {
          "internalType": "address",
          "name": "",
          "type": "address"
        },
        {
          "internalType": "address",
          "name": "",
          "type": "address"
        },
        {
          "internalType": "address",
          "name": "",
          "type": "address"
        },
        {
          "internalType": "uint256",
          "name": "",
          "type": "uint256"
        },
        {
          "internalType": "uint256",
          "name": "",
          "type": "uint256"
        },
        {
          "internalType": "uint256",
          "name": "",
          "type": "uint256"
        }
      ],
      "payable": false,
      "stateMutability": "view",
      "type": "function"
    },
    {
      "constant": true,
      "inputs": [
        {
          "internalType": "string",
          "name": "batchno",
          "type": "string"
        }
      ],
      "name": "returnRolesTimeStamp",
      "outputs": [
        {
          "internalType": "uint256",
          "name": "",
          "type": "uint256"
        },
        {
          "internalType": "uint256",
          "name": "",
          "type": "uint256"
        },
        {
          "internalType": "uint256",
          "name": "",
          "type": "uint256"
        },
        {
          "internalType": "uint256",
          "name": "",
          "type": "uint256"
        }
      ],
      "payable": false,
      "stateMutability": "view",
      "type": "function"
    },
    {
      "constant": true,
      "inputs": [
        {
          "internalType": "string",
          "name": "batchno",
          "type": "string"
        }
      ],
      "name": "returnRolesStatus",
      "outputs": [
        {
          "internalType": "bool",
          "name": "",
          "type": "bool"
        },
        {
          "internalType": "bool",
          "name": "",
          "type": "bool"
        },
        {
          "internalType": "bool",
          "name": "",
          "type": "bool"
        },
        {
          "internalType": "bool",
          "name": "",
          "type": "bool"
        }
      ],
      "payable": false,
      "stateMutability": "view",
      "type": "function"
    },
    {
      "constant": true,
      "inputs": [
        {
          "internalType": "string",
          "name": "batchno",
          "type": "string"
        }
      ],
      "name": "returnRolesLocation",
      "outputs": [
        {
          "internalType": "string",
          "name": "",
          "type": "string"
        },
        {
          "internalType": "string",
          "name": "",
          "type": "string"
        },
        {
          "internalType": "string",
          "name": "",
          "type": "string"
        },
        {
          "internalType": "string",
          "name": "",
          "type": "string"
        }
      ],
      "payable": false,
      "stateMutability": "view",
      "type": "function"
    },
    {
      "constant": false,
      "inputs": [
        {
          "internalType": "string",
          "name": "batchno",
          "type": "string"
        }
      ],
      "name": "addSecretCode",
      "outputs": [],
      "payable": false,
      "stateMutability": "nonpayable",
      "type": "function"
    },
    {
      "constant": true,
      "inputs": [
        {
          "internalType": "string",
          "name": "batchno",
          "type": "string"
        }
      ],
      "name": "generateSecretCode",
      "outputs": [
        {
          "internalType": "uint256",
          "name": "",
          "type": "uint256"
        }
      ],
      "payable": false,
      "stateMutability": "view",
      "type": "function"
    },
    {
      "constant": false,
      "inputs": [
        {
          "internalType": "string",
          "name": "batchno",
          "type": "string"
        },
        {
          "internalType": "uint256",
          "name": "code",
          "type": "uint256"
        }
      ],
      "name": "stopSupplychain",
      "outputs": [],
      "payable": false,
      "stateMutability": "nonpayable",
      "type": "function"
    }
  ],
  "bytecode": "0x608060405234801561001057600080fd5b50613def806100206000396000f3fe608060405234801561001057600080fd5b50600436106100ea5760003560e01c80638ecd2f0b1161008c578063c7ce7e8811610066578063c7ce7e8814610d53578063d213cf2214610e21578063dc2fdb1414611168578063fe8ac4fd14611291576100ea565b80638ecd2f0b14610b09578063a5fe211c14610bf7578063b81f20df14610c9d576100ea565b80635718d9c8116100c85780635718d9c81461040d5780635b70e90a146105365780635c0139271461060757806368cc425a146108bb576100ea565b80630e972e6d146100ef57806319357f57146101b95780633c77f219146102e4575b600080fd5b6101936004803603602081101561010557600080fd5b810190602081018135600160201b81111561011f57600080fd5b82018360208201111561013157600080fd5b803590602001918460018302840111600160201b8311171561015257600080fd5b91908080601f016020809104026020016040519081016040528093929190818152602001838380828437600092019190915250929550611335945050505050565b604080519485526020850193909352838301919091526060830152519081900360800190f35b6102e2600480360360408110156101cf57600080fd5b810190602081018135600160201b8111156101e957600080fd5b8201836020820111156101fb57600080fd5b803590602001918460018302840111600160201b8311171561021c57600080fd5b91908080601f0160208091040260200160405190810160405280939291908181526020018383808284376000920191909152509295949360208101935035915050600160201b81111561026e57600080fd5b82018360208201111561028057600080fd5b803590602001918460018302840111600160201b831117156102a157600080fd5b91908080601f0160208091040260200160405190810160405280939291908181526020018383808284376000920191909152509295506114db945050505050565b005b6102e2600480360360408110156102fa57600080fd5b810190602081018135600160201b81111561031457600080fd5b82018360208201111561032657600080fd5b803590602001918460018302840111600160201b8311171561034757600080fd5b91908080601f0160208091040260200160405190810160405280939291908181526020018383808284376000920191909152509295949360208101935035915050600160201b81111561039957600080fd5b8201836020820111156103ab57600080fd5b803590602001918460018302840111600160201b831117156103cc57600080fd5b91908080601f01602080910402602001604051908101604052809392919081815260200183838082843760009201919091525092955061150f945050505050565b6102e26004803603604081101561042357600080fd5b810190602081018135600160201b81111561043d57600080fd5b82018360208201111561044f57600080fd5b803590602001918460018302840111600160201b8311171561047057600080fd5b91908080601f0160208091040260200160405190810160405280939291908181526020018383808284376000920191909152509295949360208101935035915050600160201b8111156104c257600080fd5b8201836020820111156104d457600080fd5b803590602001918460018302840111600160201b831117156104f557600080fd5b91908080601f01602080910402602001604051908101604052809392919081815260200183838082843760009201919091525092955061153e945050505050565b6105da6004803603602081101561054c57600080fd5b810190602081018135600160201b81111561056657600080fd5b82018360208201111561057857600080fd5b803590602001918460018302840111600160201b8311171561059957600080fd5b91908080601f01602080910402602001604051908101604052809392919081815260200183838082843760009201919091525092955061156d945050505050565b6040518215158152602081018260018111156105f257fe5b60ff1681526020019250505060405180910390f35b6106ab6004803603602081101561061d57600080fd5b810190602081018135600160201b81111561063757600080fd5b82018360208201111561064957600080fd5b803590602001918460018302840111600160201b8311171561066a57600080fd5b91908080601f016020809104026020016040519081016040528093929190818152602001838380828437600092019190915250929550611657945050505050565b60405180806020018060200180602001806020018060200186810386528b818151815260200191508051906020019080838360005b838110156106f85781810151838201526020016106e0565b50505050905090810190601f1680156107255780820380516001836020036101000a031916815260200191505b5086810385528a5181528a516020918201918c019080838360005b83811015610758578181015183820152602001610740565b50505050905090810190601f1680156107855780820380516001836020036101000a031916815260200191505b5086810384528951815289516020918201918b019080838360005b838110156107b85781810151838201526020016107a0565b50505050905090810190601f1680156107e55780820380516001836020036101000a031916815260200191505b5086810383528851815288516020918201918a019080838360005b83811015610818578181015183820152602001610800565b50505050905090810190601f1680156108455780820380516001836020036101000a031916815260200191505b50868103825287518152875160209182019189019080838360005b83811015610878578181015183820152602001610860565b50505050905090810190601f1680156108a55780820380516001836020036101000a031916815260200191505b509a505050505050505050505060405180910390f35b61095f600480360360208110156108d157600080fd5b810190602081018135600160201b8111156108eb57600080fd5b8201836020820111156108fd57600080fd5b803590602001918460018302840111600160201b8311171561091e57600080fd5b91908080601f016020809104026020016040519081016040528093929190818152602001838380828437600092019190915250929550611b37945050505050565b6040518080602001806020018060200180602001858103855289818151815260200191508051906020019080838360005b838110156109a8578181015183820152602001610990565b50505050905090810190601f1680156109d55780820380516001836020036101000a031916815260200191505b5085810384528851815288516020918201918a019080838360005b83811015610a085781810151838201526020016109f0565b50505050905090810190601f168015610a355780820380516001836020036101000a031916815260200191505b50858103835287518152875160209182019189019080838360005b83811015610a68578181015183820152602001610a50565b50505050905090810190601f168015610a955780820380516001836020036101000a031916815260200191505b50858103825286518152865160209182019188019080838360005b83811015610ac8578181015183820152602001610ab0565b50505050905090810190601f168015610af55780820380516001836020036101000a031916815260200191505b509850505050505050505060405180910390f35b610bad60048036036020811015610b1f57600080fd5b810190602081018135600160201b811115610b3957600080fd5b820183602082011115610b4b57600080fd5b803590602001918460018302840111600160201b83111715610b6c57600080fd5b91908080601f016020809104026020016040519081016040528093929190818152602001838380828437600092019190915250929550611f1b945050505050565b604080516001600160a01b039889168152968816602088015294871686860152929095166060850152608084015260a083019390935260c082019290925290519081900360e00190f35b6102e260048036036040811015610c0d57600080fd5b810190602081018135600160201b811115610c2757600080fd5b820183602082011115610c3957600080fd5b803590602001918460018302840111600160201b83111715610c5a57600080fd5b91908080601f016020809104026020016040519081016040528093929190818152602001838380828437600092019190915250929550509135925061223d915050565b610d4160048036036020811015610cb357600080fd5b810190602081018135600160201b811115610ccd57600080fd5b820183602082011115610cdf57600080fd5b803590602001918460018302840111600160201b83111715610d0057600080fd5b91908080601f016020809104026020016040519081016040528093929190818152602001838380828437600092019190915250929550612339945050505050565b60408051918252519081900360200190f35b610df760048036036020811015610d6957600080fd5b810190602081018135600160201b811115610d8357600080fd5b820183602082011115610d9557600080fd5b803590602001918460018302840111600160201b83111715610db657600080fd5b91908080601f0160208091040260200160405190810160405280939291908181526020018383808284376000920191909152509295506123a1945050505050565b60408051941515855292151560208501529015158383015215156060830152519081900360800190f35b6102e2600480360360e0811015610e3757600080fd5b810190602081018135600160201b811115610e5157600080fd5b820183602082011115610e6357600080fd5b803590602001918460018302840111600160201b83111715610e8457600080fd5b91908080601f0160208091040260200160405190810160405280939291908181526020018383808284376000920191909152509295949360208101935035915050600160201b811115610ed657600080fd5b820183602082011115610ee857600080fd5b803590602001918460018302840111600160201b83111715610f0957600080fd5b91908080601f0160208091040260200160405190810160405280939291908181526020018383808284376000920191909152509295949360208101935035915050600160201b811115610f5b57600080fd5b820183602082011115610f6d57600080fd5b803590602001918460018302840111600160201b83111715610f8e57600080fd5b91908080601f0160208091040260200160405190810160405280939291908181526020018383808284376000920191909152509295949360208101935035915050600160201b811115610fe057600080fd5b820183602082011115610ff257600080fd5b803590602001918460018302840111600160201b8311171561101357600080fd5b91908080601f0160208091040260200160405190810160405280939291908181526020018383808284376000920191909152509295949360208101935035915050600160201b81111561106557600080fd5b82018360208201111561107757600080fd5b803590602001918460018302840111600160201b8311171561109857600080fd5b91908080601f016020809104026020016040519081016040528093929190818152602001838380828437600092019190915250929584351515959094909350604081019250602001359050600160201b8111156110f457600080fd5b82018360208201111561110657600080fd5b803590602001918460018302840111600160201b8311171561112757600080fd5b91908080601f016020809104026020016040519081016040528093929190818152602001838380828437600092019190915250929550612566945050505050565b6102e26004803603604081101561117e57600080fd5b810190602081018135600160201b81111561119857600080fd5b8201836020820111156111aa57600080fd5b803590602001918460018302840111600160201b831117156111cb57600080fd5b91908080601f0160208091040260200160405190810160405280939291908181526020018383808284376000920191909152509295949360208101935035915050600160201b81111561121d57600080fd5b82018360208201111561122f57600080fd5b803590602001918460018302840111600160201b8311171561125057600080fd5b91908080601f016020809104026020016040519081016040528093929190818152602001838380828437600092019190915250929550612925945050505050565b6102e2600480360360208110156112a757600080fd5b810190602081018135600160201b8111156112c157600080fd5b8201836020820111156112d357600080fd5b803590602001918460018302840111600160201b831117156112f457600080fd5b91908080601f016020809104026020016040519081016040528093929190818152602001838380828437600092019190915250929550612954945050505050565b600080600080600f856040518082805190602001908083835b6020831061136d5780518252601f19909201916020918201910161134e565b51815160209384036101000a600019018019909216911617905292019485525060405193849003810184206001015489519094600f94508a9350918291908401908083835b602083106113d15780518252601f1990920191602091820191016113b2565b51815160209384036101000a60001901801990921691161790529201948552506040519384900381018420600301548a519094600f94508b9350918291908401908083835b602083106114355780518252601f199092019160209182019101611416565b51815160209384036101000a60001901801990921691161790529201948552506040519384900381018420600501548b519094600f94508c9350918291908401908083835b602083106114995780518252601f19909201916020918201910161147a565b51815160209384036101000a6000190180199092169116179052920194855250604051938490030190922060070154949a939950919750929550909350505050565b805133906114f090600b906020850190613cff565b506001600160a01b0381161561150a5761150a81846129f2565b505050565b8051339061152490600a906020850190613cff565b506001600160a01b0381161561150a5761150a8184613196565b80513390611553906008906020850190613cff565b506001600160a01b0381161561150a5761150a8184613790565b600080600c836040518082805190602001908083835b602083106115a25780518252601f199092019160209182019101611583565b51815160209384036101000a6000190180199092169116179052920194855250604051938490038101842060050154875160ff90911694600c9450889350918291908401908083835b6020831061160a5780518252601f1990920191602091820191016115eb565b6001836020036101000a038019825116818451168082178552505050505050905001915050908152602001604051809103902060050160019054906101000a900460ff1691509150915091565b6060806060806060600c866040518082805190602001908083835b602083106116915780518252601f199092019160209182019101611672565b51815160209384036101000a600019018019909216911617905292019485525060405193849003810184208a519094600c94508b9350918291908401908083835b602083106116f15780518252601f1990920191602091820191016116d2565b6001836020036101000a0380198251168184511680821785525050505050509050019150509081526020016040518091039020600101600c886040518082805190602001908083835b602083106117595780518252601f19909201916020918201910161173a565b6001836020036101000a0380198251168184511680821785525050505050509050019150509081526020016040518091039020600201600c896040518082805190602001908083835b602083106117c15780518252601f1990920191602091820191016117a2565b6001836020036101000a0380198251168184511680821785525050505050509050019150509081526020016040518091039020600301600c8a6040518082805190602001908083835b602083106118295780518252601f19909201916020918201910161180a565b518151600019602094850361010090810a820192831692199390931691909117909252949092019687526040805197889003820188208c54601f600260018316159098029095011695909504928301829004820288018201905281875260049093019594508993509184019050828280156118e55780601f106118ba576101008083540402835291602001916118e5565b820191906000526020600020905b8154815290600101906020018083116118c857829003601f168201915b5050875460408051602060026001851615610100026000190190941693909304601f8101849004840282018401909252818152959a50899450925084019050828280156119735780601f1061194857610100808354040283529160200191611973565b820191906000526020600020905b81548152906001019060200180831161195657829003601f168201915b5050865460408051602060026001851615610100026000190190941693909304601f810184900484028201840190925281815295995088945092508401905082828015611a015780601f106119d657610100808354040283529160200191611a01565b820191906000526020600020905b8154815290600101906020018083116119e457829003601f168201915b5050855460408051602060026001851615610100026000190190941693909304601f810184900484028201840190925281815295985087945092508401905082828015611a8f5780601f10611a6457610100808354040283529160200191611a8f565b820191906000526020600020905b815481529060010190602001808311611a7257829003601f168201915b5050845460408051602060026001851615610100026000190190941693909304601f810184900484028201840190925281815295975086945092508401905082828015611b1d5780601f10611af257610100808354040283529160200191611b1d565b820191906000526020600020905b815481529060010190602001808311611b0057829003601f168201915b505050505090509450945094509450945091939590929450565b6060806060806010856040518082805190602001908083835b60208310611b6f5780518252601f199092019160209182019101611b50565b51815160209384036101000a6000190180199092169116179052920194855250604051938490038101842089519094601094508a9350918291908401908083835b60208310611bcf5780518252601f199092019160209182019101611bb0565b6001836020036101000a03801982511681845116808217855250505050505090500191505090815260200160405180910390206001016010876040518082805190602001908083835b60208310611c375780518252601f199092019160209182019101611c18565b6001836020036101000a03801982511681845116808217855250505050505090500191505090815260200160405180910390206002016010886040518082805190602001908083835b60208310611c9f5780518252601f199092019160209182019101611c80565b518151600019602094850361010090810a820192831692199390931691909117909252949092019687526040805197889003820188208b54601f60026001831615909802909501169590950492830182900482028801820190528187526003909301959450889350918401905082828015611d5b5780601f10611d3057610100808354040283529160200191611d5b565b820191906000526020600020905b815481529060010190602001808311611d3e57829003601f168201915b5050865460408051602060026001851615610100026000190190941693909304601f810184900484028201840190925281815295995088945092508401905082828015611de95780601f10611dbe57610100808354040283529160200191611de9565b820191906000526020600020905b815481529060010190602001808311611dcc57829003601f168201915b5050855460408051602060026001851615610100026000190190941693909304601f810184900484028201840190925281815295985087945092508401905082828015611e775780601f10611e4c57610100808354040283529160200191611e77565b820191906000526020600020905b815481529060010190602001808311611e5a57829003601f168201915b5050845460408051602060026001851615610100026000190190941693909304601f810184900484028201840190925281815295975086945092508401905082828015611f055780601f10611eda57610100808354040283529160200191611f05565b820191906000526020600020905b815481529060010190602001808311611ee857829003601f168201915b5050505050905093509350935093509193509193565b6000806000806000806000600f886040518082805190602001908083835b60208310611f585780518252601f199092019160209182019101611f39565b51815160209384036101000a60001901801990921691161790529201948552506040519384900381018420548c516001600160a01b0390911694600f94508d9350918291908401908083835b60208310611fc35780518252601f199092019160209182019101611fa4565b51815160209384036101000a60001901801990921691161790529201948552506040519384900381018420600201548d516001600160a01b0390911694600f94508e9350918291908401908083835b602083106120315780518252601f199092019160209182019101612012565b51815160209384036101000a60001901801990921691161790529201948552506040519384900381018420600401548e516001600160a01b0390911694600f94508f9350918291908401908083835b6020831061209f5780518252601f199092019160209182019101612080565b6001836020036101000a038019825116818451168082178552505050505050905001915050908152602001604051809103902060060160009054906101000a90046001600160a01b0316600f8c6040518082805190602001908083835b6020831061211b5780518252601f1990920191602091820191016120fc565b6001836020036101000a038019825116818451168082178552505050505050905001915050908152602001604051809103902060010154600f8d6040518082805190602001908083835b602083106121845780518252601f199092019160209182019101612165565b6001836020036101000a038019825116818451168082178552505050505050905001915050908152602001604051809103902060030154600f8e6040518082805190602001908083835b602083106121ed5780518252601f1990920191602091820191016121ce565b6001836020036101000a0380198251168184511680821785525050505050509050019150509081526020016040518091039020600501549650965096509650965096509650919395979092949650565b80600d836040518082805190602001908083835b602083106122705780518252601f199092019160209182019101612251565b6001836020036101000a0380198251168184511680821785525050505050509050019150509081526020016040518091039020541415612335576001600c836040518082805190602001908083835b602083106122de5780518252601f1990920191602091820191016122bf565b6001836020036101000a038019825116818451168082178552505050505050905001915050908152602001604051809103902060050160016101000a81548160ff0219169083600181111561232f57fe5b02179055505b5050565b6000600d826040518082805190602001908083835b6020831061236d5780518252601f19909201916020918201910161234e565b51815160209384036101000a6000190180199092169116179052920194855250604051938490030190922054949350505050565b600080600080600e856040518082805190602001908083835b602083106123d95780518252601f1990920191602091820191016123ba565b51815160209384036101000a6000190180199092169116179052920194855250604051938490038101842054895160ff90911694600e94508a9350918291908401908083835b6020831061243e5780518252601f19909201916020918201910161241f565b6001836020036101000a038019825116818451168082178552505050505050905001915050908152602001604051809103902060000160019054906101000a900460ff16600e876040518082805190602001908083835b602083106124b45780518252601f199092019160209182019101612495565b51815160209384036101000a60001901801990921691161790529201948552506040519384900381018420548b516201000090910460ff1694600e94508c9350918291908401908083835b6020831061251e5780518252601f1990920191602091820191016124ff565b51815160209384036101000a6000190180199092169116179052920194855250604051938490030190922054949a9399509197505050630100000090910460ff169350915050565b6040518060e001604052808881526020018781526020018681526020018581526020018481526020018315158152602001600060018111156125a457fe5b815250600c826040518082805190602001908083835b602083106125d95780518252601f1990920191602091820191016125ba565b51815160209384036101000a600019018019909216911617905292019485525060405193849003810190932084518051919461261a94508593500190613cff565b5060208281015180516126339260018501920190613cff565b506040820151805161264f916002840191602090910190613cff565b506060820151805161266b916003840191602090910190613cff565b5060808201518051612687916004840191602090910190613cff565b5060a082015160058201805460ff19169115159190911780825560c0840151919061ff0019166101008360018111156126bc57fe5b02179055509050507f436a57fae6c0adfb3538d6f8999ebd1c40d8f870d1552d4a8a69097d30be4c9e87878787878760006040518080602001806020018060200180602001806020018815151515815260200187600181111561271b57fe5b60ff16815260200186810386528d818151815260200191508051906020019080838360005b83811015612758578181015183820152602001612740565b50505050905090810190601f1680156127855780820380516001836020036101000a031916815260200191505b5086810385528c5181528c516020918201918e019080838360005b838110156127b85781810151838201526020016127a0565b50505050905090810190601f1680156127e55780820380516001836020036101000a031916815260200191505b5086810384528b5181528b516020918201918d019080838360005b83811015612818578181015183820152602001612800565b50505050905090810190601f1680156128455780820380516001836020036101000a031916815260200191505b5086810383528a5181528a516020918201918c019080838360005b83811015612878578181015183820152602001612860565b50505050905090810190601f1680156128a55780820380516001836020036101000a031916815260200191505b5086810382528951815289516020918201918b019080838360005b838110156128d85781810151838201526020016128c0565b50505050905090810190601f1680156129055780820380516001836020036101000a031916815260200191505b509c5050505050505050505050505060405180910390a150505050505050565b8051339061293a906009906020850190613cff565b506001600160a01b0381161561150a5761150a8184613a43565b6000444260405160200180838152602001828152602001925050506040516020818303038152906040528051906020012060001c905080600d836040518082805190602001908083835b602083106129bd5780518252601f19909201916020918201910161299e565b51815160209384036101000a600019018019909216911617905292019485525060405193849003019092209290925550505050565b600380546001600160a01b0319166001600160a01b03848116919091179182905542600781905560408051610100810182526000548416815260045460208083019190915260015485168284015260055460608301526002548516608083015260065460a08301529490931660c084015260e08301919091525183519192600f928592918291908401908083835b60208310612a9f5780518252601f199092019160209182019101612a80565b51815160209384036101000a6000190180199092169116179052920194855250604080519485900382018520865181546001600160a01b03199081166001600160a01b0392831617835588850151600180850191909155938901516002840180548316918416919091179055606089015160038401556080890151600484018054831691841691909117905560a0890151600584015560c0890151600684018054909216921691909117905560e0909601516007909601959095558551600e94879450925082918401908083835b60208310612b8c5780518252601f199092019160209182019101612b6d565b518151600019602094850361010090810a82019283169219939093169190911790925294909201968752604080519788900382018820805499151563010000000263ff00000019909a16999099179098556008805460a0601f600260018416159098029095019091169590950492830182900490910287018401909752608086018181529596879695509350918501905082828015612c6c5780601f10612c4157610100808354040283529160200191612c6c565b820191906000526020600020905b815481529060010190602001808311612c4f57829003601f168201915b50505091835250506009805460408051602060026001851615610100026000190190941693909304601f8101849004840282018401909252818152938201939291830182828015612cfe5780601f10612cd357610100808354040283529160200191612cfe565b820191906000526020600020905b815481529060010190602001808311612ce157829003601f168201915b5050509183525050600a805460408051602060026001851615610100026000190190941693909304601f8101849004840282018401909252818152938201939291830182828015612d905780601f10612d6557610100808354040283529160200191612d90565b820191906000526020600020905b815481529060010190602001808311612d7357829003601f168201915b5050509183525050600b805460408051602060026001851615610100026000190190941693909304601f8101849004840282018401909252818152938201939291830182828015612e225780601f10612df757610100808354040283529160200191612e22565b820191906000526020600020905b815481529060010190602001808311612e0557829003601f168201915b50505050508152506010826040518082805190602001908083835b60208310612e5c5780518252601f199092019160209182019101612e3d565b51815160209384036101000a6000190180199092169116179052920194855250604051938490038101909320845180519194612e9d94508593500190613cff565b506020828101518051612eb69260018501920190613cff565b5060408201518051612ed2916002840191602090910190613cff565b5060608201518051612eee916003840191602090910190613cff565b5050600054600454600154600554600254600654600354600754604080516001600160a01b03998a1681526020810198909852958816878701526060870194909452918616608086015260a085015290931660c083015260e08201929092529051600080516020613d9b8339815191529250908190036101000190a160408051608080825260088054600260001961010060018416150201909116049183018290527f727f43905e902a01e4d20b4eaab649c26f74ee61cabf65c99005f28727b26508939092600992600a92600b92918291602083019190830190606084019060a08501908a9080156130225780601f10612ff757610100808354040283529160200191613022565b820191906000526020600020905b81548152906001019060200180831161300557829003601f168201915b50508581038452885460026000196101006001841615020190911604808252602090910190899080156130965780601f1061306b57610100808354040283529160200191613096565b820191906000526020600020905b81548152906001019060200180831161307957829003601f168201915b505085810383528754600260001961010060018416150201909116048082526020909101908890801561310a5780601f106130df5761010080835404028352916020019161310a565b820191906000526020600020905b8154815290600101906020018083116130ed57829003601f168201915b505085810382528654600260001961010060018416150201909116048082526020909101908790801561317e5780601f106131535761010080835404028352916020019161317e565b820191906000526020600020905b81548152906001019060200180831161316157829003601f168201915b50509850505050505050505060405180910390a15050565b600280546001600160a01b0319166001600160a01b0384811691909117918290554260068190556040805161010081018252600054841681526004546020808301919091526001548516828401526005546060830152948416608082015260a081019290925260035490921660c082015260075460e0820152905183519192600f928592918291908401908083835b602083106132445780518252601f199092019160209182019101613225565b51815160209384036101000a6000190180199092169116179052920194855250604080519485900382018520865181546001600160a01b03199081166001600160a01b0392831617835588850151600180850191909155938901516002840180548316918416919091179055606089015160038401556080890151600484018054831691841691909117905560a0890151600584015560c0890151600684018054909216921691909117905560e0909601516007909601959095558551600e94879450925082918401908083835b602083106133315780518252601f199092019160209182019101613312565b518151600019602094850361010090810a9190910191821691199290921617909152939091019586526040805196879003820187208054981515620100000262ff000019909916989098179097556000546004546001546005546002546006546003546007546001600160a01b039788168e52978d01959095529285168b8d015260608b0191909152831660808a015260a08901521660c087015260e0860152509351600080516020613d9b833981519152949381900390930192915050a1604080516008805460a06020601f60026000196101006001871615020190941693909304928301819004028401810190945260808301818152929384939291908401828280156134815780601f1061345657610100808354040283529160200191613481565b820191906000526020600020905b81548152906001019060200180831161346457829003601f168201915b50505091835250506009805460408051602060026001851615610100026000190190941693909304601f81018490048402820184019092528181529382019392918301828280156135135780601f106134e857610100808354040283529160200191613513565b820191906000526020600020905b8154815290600101906020018083116134f657829003601f168201915b5050509183525050600a805460408051602060026001851615610100026000190190941693909304601f81018490048402820184019092528181529382019392918301828280156135a55780601f1061357a576101008083540402835291602001916135a5565b820191906000526020600020905b81548152906001019060200180831161358857829003601f168201915b5050509183525050600b805460408051602060026001851615610100026000190190941693909304601f81018490048402820184019092528181529382019392918301828280156136375780601f1061360c57610100808354040283529160200191613637565b820191906000526020600020905b81548152906001019060200180831161361a57829003601f168201915b50505050508152506010826040518082805190602001908083835b602083106136715780518252601f199092019160209182019101613652565b51815160209384036101000a60001901801990921691161790529201948552506040519384900381019093208451805191946136b294508593500190613cff565b5060208281015180516136cb9260018501920190613cff565b50604082015180516136e7916002840191602090910190613cff565b5060608201518051613703916003840191602090910190613cff565b505060408051608080825260088054600260001961010060018416150201909116049183018290527f727f43905e902a01e4d20b4eaab649c26f74ee61cabf65c99005f28727b26508945092600992600a92600b9282916020830191830190606084019060a08501908a9080156130225780601f10612ff757610100808354040283529160200191613022565b600080546001600160a01b0319166001600160a01b0384811691909117918290554260048190556040805161010081018252938316845260208085019290925260015483168482015260055460608501526002548316608085015260065460a085015260035490921660c084015260075460e084015290518351600f9285929182918401908083835b602083106138385780518252601f199092019160209182019101613819565b51815160209384036101000a6000190180199092169116179052920194855250604080519485900382018520865181546001600160a01b03199081166001600160a01b0392831617835588850151600180850191909155938901516002840180548316918416919091179055606089015160038401556080890151600484018054831691841691909117905560a0890151600584015560c0890151600684018054909216921691909117905560e0909601516007909601959095558551600e94879450925082918401908083835b602083106139255780518252601f199092019160209182019101613906565b518151600019602094850361010090810a919091019182169119929092161790915293909101958652604080519687900382018720805498151560ff19909916989098179097556000546004546001546005546002546006546003546007546001600160a01b039788168e52978d01959095529285168b8d015260608b0191909152831660808a015260a08901521660c087015260e0860152509351600080516020613d9b833981519152949381900390930192915050a1604080516008805460a06020601f60026000196101006001871615020190941693909304928301819004028401810190945260808301818152929384939291908401828280156134815780601f1061345657610100808354040283529160200191613481565b600180546001600160a01b0319166001600160a01b0384811691909117918290554260058190556040805161010081018252600054841681526004546020808301919091529484168183015260608101929092526002548316608083015260065460a083015260035490921660c082015260075460e0820152905183519192600f928592918291908401908083835b60208310613af15780518252601f199092019160209182019101613ad2565b51815160209384036101000a6000190180199092169116179052920194855250604080519485900382018520865181546001600160a01b03199081166001600160a01b0392831617835588850151600180850191909155938901516002840180548316918416919091179055606089015160038401556080890151600484018054831691841691909117905560a0890151600584015560c0890151600684018054909216921691909117905560e0909601516007909601959095558551600e94879450925082918401908083835b60208310613bde5780518252601f199092019160209182019101613bbf565b518151600019602094850361010090810a9190910191821691199290921617909152939091019586526040805196879003820187208054981515850261ff0019909916989098179097556000546004546001546005546002546006546003546007546001600160a01b039788168e52978d01959095529285168b8d015260608b0191909152831660808a015260a08901521660c087015260e0860152509351600080516020613d9b833981519152949381900390930192915050a1604080516008805460a06020601f60026000196101006001871615020190941693909304928301819004028401810190945260808301818152929384939291908401828280156134815780601f1061345657610100808354040283529160200191613481565b828054600181600116156101000203166002900490600052602060002090601f016020900481019282601f10613d4057805160ff1916838001178555613d6d565b82800160010185558215613d6d579182015b82811115613d6d578251825591602001919060010190613d52565b50613d79929150613d7d565b5090565b613d9791905b80821115613d795760008155600101613d83565b9056fe0f09c3dfa2e3af7b40c7b5be6fe6ed1f408ea0fd76c28b3bf02657d37b46f38ba265627a7a72315820cd3a316163460a6c1a5a1c4265aee6fb3248572e685f5e183486b1560b112e3564736f6c63430005100032",
  "source": "//contract address: 0xf36C532b92bEfD6d0ff822aD774bffdbD9ddfDb4\npragma solidity ^0.5.0; \n    \ncontract Supplychain{  \n    address origmanufacturer;\n    address origdistributor; \n    address origlogistic;\n    address origenduser; \n    uint origmantimestamp;\n    uint origdistimestamp;\n    uint origlogtimestamp;\n    uint origusertimestamp;\n    string manfloc;\n    string distloc;\n    string logloc;\n    string userloc; \n\n    //Tracks whether the drug is active or inactive in supplychain\n    enum drugActivity{\n        Active, \n        Inactive\n    } \n\n    //Drug details\n    struct Drug{\n            string drugName;\n            string drugQuantity; \n            string dateOfManufacture; \n            string dateOfExpire;\n            string fileaddress; \n            bool verified;\n            drugActivity activity;  \n    }  \n\n\n    mapping(string=>Drug) drugDetail;      \n\n    mapping(string=>uint) secretCode;\n\n     //Event to add drug to blockchain \n    event addDrugs(string drugName, string drugQuantity, string dateOfManufacture, string dateOfExpire, string fileaddress, bool verified, drugActivity activity);\n\n\n    //Tracks the status of drug at each actor role, \"true\" if the drug has reached the particular actor role else \"false\"\n    struct DrugTrack{\n        bool manufacturer;\n        bool distributor; \n        bool logisticreg; \n        bool enduser;\n    }  \n    \n\n    //Address of actor roles if the drug has reached the particular actor role\n    struct supplyChain{\n        address _manufacturer; \n        uint _mantimestamp; \n        address _distributor; \n        uint _distimestamp;\n        address _logistics; \n        uint _logtimestamp;\n        address _enduser;\n        uint _usertimestamp; \n    }  \n\n    struct roleLoc{\n        string _manfloc; \n        string _distloc; \n        string _logloc; \n        string _userloc;\n    }\n\n    //batch no linked to Structure drugTrack\n    mapping(string=>DrugTrack) drugTrack; \n\n    //batch no linked to Structure supplychain\n    mapping(string=>supplyChain) supplychain; \n\n    //batch no linked to Structure roleLoc \n    mapping(string=>roleLoc) rolelocation; \n\n    //Event is triggered to add address of particular actor role when drug is reached\n    //This event handles struct supplychain\n    event manageSupplychain(address origmanufacturer, uint origmantimestamp, address origdistributor, uint origdistimestamp, address origlogistic, uint origlogtimestamp, address origenduser, uint origusertimestamp);\n\n    //This event manages location of each role\n    event manageLocation(string manfloc, string distloc, string logloc, string userloc);\n\n    //Function to add drug info to blockhain\n    function AddDrug(string memory _drugName, \n    string memory _drugQuantity, \n    string memory _dateOfManufacture, \n    string memory _dateOfExpire, \n    string memory _fileaddress,\n    bool _verified,  \n    string memory batchno) public{\n        drugDetail[batchno]= Drug(_drugName,_drugQuantity,_dateOfManufacture,_dateOfExpire,_fileaddress,_verified,drugActivity.Active);\n        emit addDrugs(_drugName, _drugQuantity, _dateOfManufacture, _dateOfExpire, _fileaddress, _verified, drugActivity.Active); \n    } \n\n    //Function to retrieve drugs\n    function retrieveDrug(string memory batchno) public view returns(string memory, string memory , string memory, string memory, string memory){\n        return (drugDetail[batchno].drugName, drugDetail[batchno].drugQuantity, drugDetail[batchno].dateOfManufacture, drugDetail[batchno].dateOfExpire, drugDetail[batchno].fileaddress);\n    } \n    function retrieveDrug1(string memory batchno) public view returns(bool, drugActivity){\n        return (drugDetail[batchno].verified, drugDetail[batchno].activity);\n    }    \n    \n    //To add manufatuer to supplychain \n    function addManufactuer(string memory batchno, string memory loc) public{\n        address manufacturerAddress=msg.sender; \n        manfloc=loc;\n        if(manufacturerAddress != address(0)){\n            _addManufactuer(manufacturerAddress,batchno);\n        }\n    }\n    function _addManufactuer(address man_Address, string memory batchno) private{\n        origmanufacturer=man_Address; \n        origmantimestamp=block.timestamp;\n        supplychain[batchno]=supplyChain(origmanufacturer,origmantimestamp,origdistributor,origdistimestamp,origlogistic,origlogtimestamp,origenduser,origusertimestamp); \n        drugTrack[batchno].manufacturer=true; \n        emit manageSupplychain(origmanufacturer,origmantimestamp,origdistributor,origdistimestamp,origlogistic,origlogtimestamp,origenduser,origusertimestamp); \n        rolelocation[batchno]=roleLoc(manfloc, distloc, logloc, userloc);\n        emit manageLocation(manfloc, distloc, logloc, userloc);\n    }   \n    \n    //To add distributor to supplychain \n    function addDistributor(string memory batchno, string memory loc) public{\n        address distributorAddress=msg.sender; \n        distloc=loc;\n        if(distributorAddress != address(0)){\n            _addDistributor(distributorAddress,batchno);\n        }\n    }\n    function _addDistributor(address dis_Address, string memory batchno) private{\n        origdistributor=dis_Address; \n        origdistimestamp=block.timestamp;\n        supplychain[batchno]=supplyChain(origmanufacturer,origmantimestamp,origdistributor,origdistimestamp,origlogistic,origlogtimestamp,origenduser,origusertimestamp); \n        drugTrack[batchno].distributor=true;\n        emit manageSupplychain(origmanufacturer,origmantimestamp,origdistributor,origdistimestamp,origlogistic,origlogtimestamp,origenduser,origusertimestamp);\n        rolelocation[batchno]=roleLoc(manfloc, distloc, logloc, userloc);\n        emit manageLocation(manfloc, distloc, logloc, userloc);\n    }   \n\n    //To add logistic to supplychain \n    function addLogistic(string memory batchno, string memory loc) public{\n        address logisticAddress=msg.sender; \n        logloc=loc;\n        if(logisticAddress != address(0)){\n            _addLogistic(logisticAddress,batchno);\n        }\n    }\n    function _addLogistic(address logi_Address, string memory batchno) private{\n        origlogistic=logi_Address;\n        origlogtimestamp=block.timestamp;\n        supplychain[batchno]=supplyChain(origmanufacturer,origmantimestamp,origdistributor,origdistimestamp,origlogistic,origlogtimestamp,origenduser,origusertimestamp); \n        drugTrack[batchno].logisticreg=true;\n        emit manageSupplychain(origmanufacturer,origmantimestamp,origdistributor,origdistimestamp,origlogistic,origlogtimestamp,origenduser,origusertimestamp);\n        rolelocation[batchno]=roleLoc(manfloc, distloc, logloc, userloc);\n        emit manageLocation(manfloc, distloc, logloc, userloc);\n    }   \n\n    //To add endUser to supplychain \n    function addEndUser(string memory batchno, string memory loc) public{\n        address endUserAddress=msg.sender; \n        userloc=loc;\n        if(endUserAddress != address(0)){\n            _addEndUser(endUserAddress,batchno);\n        }\n    }\n    function _addEndUser(address enduser_Address, string memory batchno) private{\n        origenduser=enduser_Address;\n        origusertimestamp=block.timestamp;\n        supplychain[batchno]=supplyChain(origmanufacturer,origmantimestamp,origdistributor,origdistimestamp,origlogistic,origlogtimestamp,origenduser,origusertimestamp); \n        drugTrack[batchno].enduser=true;\n        rolelocation[batchno]=roleLoc(manfloc, distloc, logloc, userloc);\n        emit manageSupplychain(origmanufacturer,origmantimestamp,origdistributor,origdistimestamp,origlogistic,origlogtimestamp,origenduser,origusertimestamp);\n        emit manageLocation(manfloc, distloc, logloc, userloc);\n    }   \n\n    //Return Address added to supplychain for particular batchno\n    function returnRolesAddresses(string memory batchno) public view returns(address,address,address,address,uint,uint,uint){\n        return (supplychain[batchno]._manufacturer,supplychain[batchno]._distributor,supplychain[batchno]._logistics,supplychain[batchno]._enduser,supplychain[batchno]._mantimestamp,supplychain[batchno]._distimestamp,supplychain[batchno]._logtimestamp);\n    } \n\n    //Return Timestamp of each role created\n    function returnRolesTimeStamp(string memory batchno) public view returns(uint,uint,uint,uint){\n        return (supplychain[batchno]._mantimestamp,supplychain[batchno]._distimestamp,supplychain[batchno]._logtimestamp,supplychain[batchno]._usertimestamp);\n    }\n\n    //Return Status(true/false) added to supplychain for particular batchno\n    function returnRolesStatus(string memory batchno) public view returns(bool, bool, bool, bool){\n        return (drugTrack[batchno].manufacturer,drugTrack[batchno].distributor,drugTrack[batchno].logisticreg,drugTrack[batchno].enduser);\n    } \n\n    //Return location of each role\n    function returnRolesLocation(string memory batchno) public view returns(string memory, string memory, string memory, string memory){\n        return (rolelocation[batchno]._manfloc,rolelocation[batchno]._distloc,rolelocation[batchno]._logloc,rolelocation[batchno]._userloc);\n    } \n    function addSecretCode(string memory batchno)public{\n        uint _secretCode=uint(keccak256(abi.encodePacked(block.difficulty,block.timestamp)));\n        secretCode[batchno]=_secretCode; \n    } \n    function generateSecretCode(string memory batchno) public view returns(uint){\n        return secretCode[batchno];\n    }\n    function stopSupplychain(string memory batchno, uint code) public{\n       if(secretCode[batchno] == code){\n           drugDetail[batchno].activity=drugActivity.Inactive;\n       } \n    } \n}",
  "sourcePath": "F:\\Major Project\\GraminMediLink\\contracts\\Supplychain.sol",
  "compiler": {
    "name": "solc",
    "version": "0.5.16+commit.9c3226ce.Emscripten.clang"
  },
  "schemaVersion": "3.4.16",
  "updatedAt": "2023-10-27T15:45:02.060Z",
  "devdoc": {
    "methods": {}
  },
  "userdoc": {
    "methods": {}
  }
}